:020000040800F2
:10000000800A002001010008172800089722000834
:1000100015280008690200083D34000800000000AF
:100020000000000000000000000000008D2C00080F
:100030008902000800000000032A0008D92C0008EB
:100040001B0100081B0100081B0100081B01000820
:100050001B0100081B0100081B0100081B01000810
:100060001B0100081B0100081B0100081B01000800
:100070001B0100081B0100081B0100081B010008F0
:100080001B0100081B0100086D0100081B0100088E
:100090001B0100081B0100081B0100081B010008D0
:1000A0001B0100081B0100081B010008592D000856
:1000B000652D0008712D00087D2D00081B0100082A
:1000C0001B0100081B0100081B0100081B010008A0
:1000D0001B010008053300081B0100081B01000874
:1000E0001B0100081B0100081B010008DFF80CD0F1
:1000F00000F02AF8004800477D340008800A0020FC
:100100000648804706480047FEE7FEE7FEE7FEE7B1
:10011000FEE7FEE7FEE7FEE7FEE7FEE7552D0008F7
:10012000ED000008D2B201E000F8012B491EFBD21D
:1001300070470022F6E710B513460A4604461946F2
:10014000FFF7F0FF204610BD064C074D06E0E068C3
:1001500040F0010394E8070098471034AC42F6D30E
:10016000FFF7C8FFC4350008E4350008014800F077
:10017000A6BA0000E404002070B504460068816857
:10018000C943C90717D1816821F00101816000F0DE
:10019000B3FD05460AE000BF00F0AEFD401B02289B
:1001A00004D920688068C043C00706D020688068F2
:1001B000C043C007F0D0002070BDA06A40F010001E
:1001C000A062E06A40F00100E062012070BD000022
:1001D000F8B500260446009600688168C943C9073F
:1001E0002DD0816841F001018160164816490068F0
:1001F000B0FBF1F000E0401E00900028FBD100F0C1
:100200007BFD054616E000BF00F076FD401B02288E
:1002100010D920688068C043C0070BD0A06A40F0A6
:100220001000A062E06A40F00100E06284F82460FF
:100230000120F8BD20688068C043C007E4D10020D9
:10024000F8BD00006000002040420F000449012278
:100250000A708880002048800821024800F047BDCD
:1002600020000020000C0140FEE70000054B4FF489
:100270008051012803D00022184600F038BD012229
:10028000FAE70000000C01407047000010B50B4B6E
:10029000012804D0022805D0032808D10BE0012250
:1002A000102101E001225102184600F020FD04490E
:1002B0000020C87110BD01225103F5E7000C014078
:1002C0000A00002070B5204B204E14460D46012830
:1002D00013D0022825D0032835D19914012D30D010
:1002E0000122184600F003FDB481B5704FF0030001
:1002F0008CB1BDE8704000F02DB84FF40061012DC5
:100300000DD00122184600F0F2FC748175704FF098
:100310000100002CEDD1BDE87040FFF7B7BF00220F
:10032000F0E70B48012D0AD00122202100F0DFFC6C
:10033000348135704FF00200002CDAD1EBE7002257
:10034000F3E70022CDE770BD000801400A0000205D
:10035000000C014010B50C4B012804D0022805D038
:10036000032809D10CE00022102102E000224FF402
:100370000071184600F0BBFC04490120C87110BD93
:1003800000224FF40051F4E7000C01400A00002065
:1003900072B6FEE7354B10B518461C78427800213E
:1003A000801F022C06D0032C1DD0052C32D0062C29
:1003B00045D00EE00379012B0BD10171072A08D239
:1003C000DFE802F0070406090B0D0F00012100E031
:1003D0000221417110BD0321FBE70421F9E705214A
:1003E000F7E70621F5E7072A11D2DFE802F010044B
:1003F00006080A0C0E0007222DE008222BE0092235
:1004000029E00A2227E00B2225E00C2223E01970C4
:10041000597010BD072AFCD2DFE802F00405070975
:100420000B0D0F00F5E70D21D3E70E21D1E70F21CA
:10043000CFE71021CDE71121CBE71221C9E7072A29
:10044000E5D2DFE802F00405070A0C0E1000DEE733
:10045000132200E014224271D9E71522FBE716228D
:10046000F9E71722F7E71822F5E700000600002059
:10047000F8B500250446009590F8240001280BD01B
:10048000012084F824002046FFF776FE2046FFF77F
:100490009FFE060002D050E00220F8BDA06A20F4C2
:1004A000885040F00200A062022000F0C3FC254901
:1004B0000968B1FBF0F0400000E0401E0090002809
:1004C000FBD12068816841F00801816000F014FCD4
:1004D000074608E000F010FCC01B0A2803D920687A
:1004E0008068000715D4206880680007F2D420686F
:1004F000816841F00401816000F0FEFB074612E0D4
:1005000000F0FAFBC01B0A280DD92068806840075C
:1005100009D5A06A20F0020040F01000A06284F823
:1005200024500120F8BD206880684007E8D4A06A04
:1005300020F0020040F00100A06284F82450304610
:10054000F8BD00006000002070470000F8B50024EE
:10055000009490F824202546012A12D0012280F828
:1005600024204A681F23072A0DD20668776B521E83
:1005700002EB820293409F430B6893401F437763D3
:1005800019E00220F8BD06680D2A0AD2376BD21F87
:1005900002EB820293409F430B6893401F433763F3
:1005A00009E0F76A0D3A02EB820293409F430B6821
:1005B00093401F43F7620A68072306680A2A0AD392
:1005C000F7680A3A02EB420293409F438B689340DC
:1005D0001F43F76008E0376902EB420293409F43F4
:1005E0008B6893401F4337610A68102A01D0112A93
:1005F00020D1124B02689A4217D193681B0219D47A
:10060000936843F4000393600968102912D10C49E0
:100610000C4A0968B1FBF2F101EB8101490000E0ED
:10062000491E00910029FBD104E0816A41F02001BC
:100630008162012480F824502046F8BD0024014046
:100640006000002040420F0010B5184C1849207877
:100650000870184800F030F880B2B0F50C7F01D86F
:1006600006201DE040F65411884201D2052017E013
:1006700040F65431884201D2042011E040F6654131
:10068000884201D203200BE0B0F5516F01D802205F
:1006900006E040F6A961884201D2012000E0002076
:1006A0002070BDE8104001F051BE000000000020A5
:1006B00001000020E40400200068C06C704770B5A1
:1006C0000446006806684568A90625D5B10723D504
:1006D000A16AC90603D4A16A41F40071A1628168CC
:1006E000C1F34241072910D1217B71B9416821F042
:1006F00020014160A06A20F48070A062A06AC0045A
:1007000003D4A06A40F00100A0622046FFF79CFFDE
:1007100021686FF01200086028062ED570072CD5CE
:10072000A06AC00603D4A06A40F40050A06220680A
:100730008168C1F30231072909D04168490515D400
:100740008168C1F34241072910D1217B71B9416809
:1007500021F080014160A06A20F48050A062A06A6C
:10076000C00503D4A06A40F00100A0622046FFF754
:10077000EBFE21686FF00C00086068060CD5F007EE
:100780000AD0A06A40F48030A062204600F094F8BD
:1007900021686FF00100086070BD00002DE9F04194
:1007A0004FF0000704003D467ED0A06A002628B91D
:1007B000E66284F82460204600F080F82046FFF7C7
:1007C000DBFCA16AC90600D420B1A06A40F0100089
:1007D000A06269E0A16A21F4885141F00201A1629E
:1007E0006268E169237B0A4347EA43010A43A1683F
:1007F0004FF48077B94209D0012907D05FF000019A
:1008000094F814C0BCF1010F02D00AE03946F7E7B2
:10081000F3B1A36A43F02003A362E36A43F0010348
:10082000E3622368D3F804C02CF4694C4CEA010C51
:10083000C3F804C021688B68DFF870C003EA0C03BA
:1008400013438B60A168B9420BD0012909D00CE099
:10085000DFF85CC0A3690CEB43330B4343F4006146
:10086000DFE7218A0D05A5F580152168CB6A23F401
:1008700070032B43CB62216889680E4B194091426B
:1008800008D1E662A16A21F0020141F00101A162F2
:10089000BDE8F081A06A20F0020040F01000A062E4
:1008A000E06A40F00100E0620120F1E7FDF7E1FFBE
:1008B00000E0FFFFFE0E1FFF7047000000B585B08F
:1008C0000021009101910291039100681249884230
:1008D00020D11248816941F400718161816901F47C
:1008E00000710491816941F0040181618069694668
:1008F00000F00400049001200090032001900848BB
:1009000000F0F8F800220221122000F061FA122013
:1009100000F050FA05B000BD002401400010024074
:100920000008014070B5044690F8240001280DD05D
:10093000012084F824002046FFF74AFC02004FF013
:10094000000005D084F82400104670BD022070BD60
:10095000A16A40F60163994341F48071A162224D7E
:1009600023682249AB4218D10E6816F4702F14D0B8
:10097000A66A46F48016A6620E68760505D5A66AB4
:1009800026F4005646F48056A662A66AF6040AD5F6
:10099000E66A26F00606E66206E0A66A26F48016F7
:1009A000A6625E68E9E7E06284F824006FF0020066
:1009B00018602068436843F0200343602068836820
:1009C000C3F34243072B05D1A84208D1096811F4AB
:1009D000702F04D0816841F480118160B4E7816890
:1009E00041F4A001F9E7000000280140042401407F
:1009F00010B590F821100022022905D0042181634E
:100A000080F82020012010BD01680B6823F00E0340
:100A10000B6001680B6823F001030B6090F8403015
:100A2000C46B012101FA03F3636080F8211080F8A0
:100A30002020104610BD000010B590F821100024B1
:100A4000022903D00421816301243DE001680A6882
:100A500022F00E020A6001680A6822F001020A60B0
:100A60001A4A0168914201D1012121E0174A14324A
:100A7000914201D110211BE0144A2832914201D148
:100A8000891515E0114A3C32914201D189140FE0D9
:100A90000E4A5032914202D14FF4803108E00B4AA5
:100AA0006432914202D14FF4801101E04FF0807125
:100AB000064A083A5160012180F82110002180F88F
:100AC0002010416B01B18847204610BD080002404C
:100AD00070B5044600F010F90546601C02D00448C9
:100AE0000078044400F008F9401BA042FAD370BD1E
:100AF000540000202DE9F84FDFF8B8910024A9F147
:100B0000040B23460F2709F1040AABF1040EC9E0D8
:100B10000125A5402A40AA427DD1674ED1F804C0E4
:100B2000ACEB0608B44532D014DCBCF1030F3AD06C
:100B300009DCBCF1000F2AD0BCF1010F1CD0BCF1C4
:100B4000020F31D11DE0BCF1110F17D0BCF1120F13
:100B50002AD119E0B8F5881F19D006DCB8F5803F16
:100B600015D0B8F5801F1FD111E0B8F5001F0ED0C9
:100B7000B8F5041F18D10AE0CB6815E0CB681B1D3F
:100B800012E0CB6808330FE0CB680C330CE08B68C5
:100B90002BB1012B4FF0080303D0456104E004237F
:100BA00002E0056100E00023FF2A01D8064601E0CB
:100BB00000F104064FEA840501D9A5F12005D6F815
:100BC000008007FA05FC28EA0C0803FA05F548EA54
:100BD0000508C6F800804D68ED0062D5374DAE6956
:100BE00046F00106AE61AD6924F0030605F001058B
:100BF0000095334D06EB050CDCF80850A607360FC0
:100C000007FA06F825EA0805DFF8B880404503D161
:100C10004FF0000817E044E0DFF8AC80404502D117
:100C20004FF001080FE0DFF8A480404502D14FF0FB
:100C3000020808E0DFF89880404502D14FF0030831
:100C400001E04FF0040808FA06F848EA0508CCF875
:100C500008804D68D9F80060ED024D4601D5164375
:100C600000E096432E604D68DAF80060AD0255460C
:100C700001D5164300E096432E604D68DBF8006016
:100C8000AD035D4601D5164300E096432E604D68E6
:100C9000DEF80060ED03754601D5164300E096438B
:100CA0002E60641C0D682A46E5407FF431AFBDE834
:100CB000F88F0000080401400000111000100240ED
:100CC0000000014000080140000C014000100140FC
:100CD000001401408068084000D001207047C268BD
:100CE00021EA02030A4043EA0241016170470AB166
:100CF000016170470904FBE7014880687047000004
:100D000054000020024881680278114481607047D5
:100D100054000020074810B5016841F0100101603F
:100D2000032000F075F80F2000F006F800F024F81A
:100D3000002010BD0020024070B50D4D04464FF458
:100D40007A712878B1FBF0F00A490968B1FBF0F03C
:100D500000F0A4FB48B9102C07D200222146501EF7
:100D600000F036F800206C6070BD012070BD0000FE
:100D700054000020600000200C4808B5816941F053
:100D800001018161816901F001010091C16941F0B6
:100D90008051C161C06900F08050009004484168F2
:100DA00021F0E06141F00071416008BD0010024097
:100DB00000000140002809DB00F01F0201219140E2
:100DC0004009800000F1E020C0F8001170470000E9
:100DD000F0B40E4B1B680C46C3F30223C3F10705A6
:100DE000042D00D90425191D072901D2002300E094
:100DF000DB1E012606FA05F1491E214099409E405E
:100E0000761E16403143F0BC02F019BB0CED00E039
:100E1000064900F0070208684FF6FF03184040EA51
:100E20000220034A10430860704700000CED00E008
:100E30000000FA0510B501460020234C012922D0FC
:100E4000022939D010291DD161682268D20119D533
:100E50001E48C1F38342C903805C0AD561681B4AFE
:100E6000C1F34041921E515C194AB2FBF1F1484373
:100E700001E0184948436168490203D44000032156
:100E8000B0FBF1F010BD226AC2F30121012903D1A8
:100E9000920701D5C80310BD022905D1626A9207E5
:100EA00002D549F6404010BD0329FCD121688903D1
:100EB000F9D54FF2244010BD00F02AF96168C1F362
:100EC0008131491C4900DBE7001002409C350008D5
:100ED00000127A0000093D002DE9F843054600782C
:100EE000354CC00754D0E0690026C00008D4E06942
:100EF00040F08050E061E069012600F080500090F1
:100F00002E480168C90512D40168804641F48071F9
:100F10000160FFF7F1FE074605E000BFFFF7ECFEBA
:100F2000C01B642823D8D8F80000C005F6D5206A75
:100F300010F4407021D0A98801F4407181421CD086
:100F4000206A1F49012220F440700A6000220A60D2
:100F50002062C00711D0FFF7CFFE074641F2883864
:100F600008E000BFFFF7C8FEC11B414502D90320BE
:100F7000BDE8F883206A8007F4D5206A696820F408
:100F80004070084320621EB1E06920F08050E061AB
:100F90002878800705D56068A96820F44040084398
:100FA00060602878C00605D56068E96820F4800094
:100FB000084360600020DBE7001002400070004042
:100FC000400442422DE9F0470F46050061D0434EF0
:100FD000306800F00700B84209D2306820F00700FE
:100FE00038433060306800F00700B84251D12868BB
:100FF0003B4C810712D5400703D5606840F4E060A0
:1010000060602878000703D5606840F46050606035
:101010006068A96820F0F000084360602878C00785
:1010200028D06868012810D02168022810D08907CC
:1010300000292EDA616821F0030101436160FFF7A6
:101040005BFE804641F288390DE021688903EFE7B5
:101050008901EDE7FFF750FEA0EB0801494502D9F1
:101060000320BDE8F0876068696800F00C00B0EB11
:10107000810FEFD1306800F00700B8420BD930681B
:1010800020F0070038433060306800F00700B842B5
:1010900001D00120E5E72878400705D56068E968B8
:1010A00020F4E060084360602878000706D5606897
:1010B000296920F4605040EAC100606000F038F80F
:1010C0006168084AC1F30311515CC84006490860D1
:1010D00006480068FFF730FE0020C2E7002002400B
:1010E00000100240AC3500086000002058000020CD
:1010F0000448054900684968044AC1F30221515C6B
:10110000C84070476000002000100240BC35000855
:101110000448054900684968044AC1F3C221515C8A
:10112000C84070476000002000100240BC35000835
:101130000E4A51680E4801F00C03042B11D0082B05
:101140000FD10C48C1F38343C903C05C0AD5516871
:10115000084AC1F34041921E515C054A5043B0FB1E
:10116000F1F0704704494843704700000010024006
:1011700000127A008A35000800093D002DE9F84F79
:10118000040070D02078C04DC00749D06868C0F313
:101190008100012807D06868C0F38100022809D1C6
:1011A0006868C00306D52868800339D560680028C0
:1011B000E7D035E06068B0F5803F0BD010B1B0F5F6
:1011C000A02F11D0286820F480302860286820F4EF
:1011D000802002E0286840F480302860606890B188
:1011E000FFF78AFD06460AE0286840F48020286060
:1011F000F0E700BFFFF780FD801B642873D82868E4
:101200008003F7D50CE0FFF777FD064605E000BF49
:10121000FFF772FD801B6428F0D828688003F7D49C
:1012200020789A4E80074FF001094FF0000839D519
:10123000686810F00C0F07D06868C0F381000228BE
:1012400009D16868C00306D42868800714D52069CE
:10125000012808D110E02069B0B1C6F80090FFF76E
:101260004BFD074605E00AE1FFF746FDC01B0228DB
:10127000C4D828688007F7D52868616920F0F8008D
:1012800040EAC10028600DE0C6F80080FFF734FD99
:10129000074604E0FFF730FDC01B022823D828686A
:1012A0008007F7D4207800072CD57948A169D9B1F7
:1012B000C0F80090FFF720FD074604E0FFF71CFD93
:1012C000C01B02280FD8686A8007F7D571484FF411
:1012D000FA510068B0FBF1F0009000BF0098411E89
:1012E0000091FAD20EE080E0C0F80080FFF704FD24
:1012F000074604E0FFF700FDC01B022875D8686AA6
:101300008007F7D42078400760D5E8690027C0003F
:1013100008D4E86940F08050E861E869012700F0EE
:10132000805000905C480168C90513D40168834669
:1013300041F480710160FFF7DFFC824606E000BFE8
:10134000FFF7DAFCA0EB0A0064284ED8DBF80000B7
:10135000C005F5D5E06801280AD008B1052813D0EA
:10136000286A20F001002862286A20F0040002E0C8
:10137000286A40F001002862E06841F2883B98B199
:10138000FFF7BAFC82460BE0286A40F004002862AE
:10139000EEE700BFFFF7B0FCA0EB0A0159455AD8B1
:1013A000286A8007F6D50CE0FFF7A6FC824605E028
:1013B000FFF7A2FCA0EB0A0159454CD8286A800728
:1013C000F6D41FB1E86920F08050E861E06988B385
:1013D0006968C1F38101022944D00228C6F86080FF
:1013E00004D0FFF789FC044638E034E0FFF784FCC2
:1013F000074604E0FFF780FCC01B02282BD82868B2
:101400008001F7D4206AB0F5803F05D16868A168F3
:1014100020F4003008436860D4E908010843696893
:1014200021F4741108436860C6F86090FFF764FC0B
:10143000044606E025E000BFFFF75EFC001B022823
:1014400009D828688001F7D51BE000BFFFF754FCDE
:10145000001B022802D90320BDE8F88F286880010C
:10146000F4D40EE00128F7D06868226A00F48031D5
:10147000914204D1616A00F47010884201D00120C9
:10148000EAE70020E8E700000010024000004242C6
:1014900080044242600000200070004010B5401EF1
:1014A000B0F1807F01D3012010BD4FF0E0246061D6
:1014B0000F21601701F0C3FF0020A0610720206109
:1014C000002010BD7047704710B590F83C20012AED
:1014D00022D0012280F83C20CA688C6822F4407235
:1014E00022434C6822F4806222430C6822F400629A
:1014F00022430C6922F4805222434C6922F40052A8
:101500002243C969002322F480420A4301684A64E5
:1015100080F83C30002010BD022010BD70B590F85E
:101520003C20012A26D0012480F83C40022280F889
:101530003D2003685A689D6822F070060A683243AD
:101540005A600D4B02689A4208D0B2F1804F05D024
:101550000A4B9A4202D00A4B9A4204D1496825F0BC
:1015600080031943916080F83D40002180F83C10D1
:10157000084670BD022070BD002C014000040040F0
:101580000008004010B5040003D094F83D0010B1ED
:1015900007E0012010BD002084F83C00204600F048
:1015A0001FF8022084F83D00211D206801F0ECFBAB
:1015B000012084F8460084F83E0084F83F0084F857
:1015C000400084F8410084F8420084F8430084F825
:1015D000440084F8450084F83D00002010BD000060
:1015E00008B501681D48B1F1804F11D01C4A9142E5
:1015F0001DD1C16941F00201C161C069002200F042
:101600000200009011461D20FFF7E2FB1D201FE0A5
:10161000C16941F00101C161C069002200F001000F
:10162000009011461C20FFF7D3FB1C2010E00D4A50
:10163000914211D1C16941F00401C161C069002228
:1016400000F00400009001211E20FFF7C1FB1E20C6
:10165000BDE80840FFF7AEBB08BD00000010024027
:10166000000400400008004070B5044690F83C00BB
:101670000025012817D0012684F83C60022084F858
:101680003D002068826822F0770222F47F42826067
:101690000868502838D00DDC20284FD005DC90B3E6
:1016A000102811D14AE0022070BD302846D04028D1
:1016B0000AD13BE060282FD070280DD0B0F5805FB4
:1016C00003D0B0F5005F12D0012584F83D60002002
:1016D00084F83C00284670BDCB68D1E90121206820
:1016E00001F09BFB2068816841F0770109E0CB683D
:1016F000D1E90121206801F090FB2068816841F464
:1017000080418160E1E719E0CA684968206801F01A
:1017100039FC5021206806E0CA684968206801F059
:1017200042FC6021206801F082FBCEE7CA6849686C
:10173000206801F027FC40212068F4E72268014678
:101740001046F0E770472DE9F04104460068C6688E
:1017500005694FF00007A90713D5B10711D5F91E88
:10176000016101202077206880698007204602D02F
:10177000FFF7E8FF04E000F0FDF8204600F046FA2D
:101780002777680716D5700714D521686FF0040015
:101790000861022020772068806910F4407F20468D
:1017A00002D0FFF7CFFF04E000F0E4F8204600F09D
:1017B0002DFA2777280715D5300713D521686FF044
:1017C00008000861042020772068C069800720464F
:1017D00002D0FFF7B7FF04E000F0CCF8204600F09D
:1017E00015FA2777E80616D5F00614D521686FF0AC
:1017F00010000861082020772068C06910F4407F3D
:10180000204602D0FFF79EFF04E000F0B3F8204628
:1018100000F0FCF92777E80708D0F00706D0216828
:101820006FF001000861204600F01EFB280608D575
:10183000300606D521686FF0800008612046FFF76A
:1018400041FE680608D5700606D521686FF0400095
:101850000861204600F009FBA8060AD5B00608D5A5
:1018600021686FF0200008612046BDE8F041FFF7D5
:101870002ABEBDE8F081000030B585B0002100919E
:1018800001910291039121491F4D03688C15022299
:101890001F48AB4207D18B6943F004038B61896910
:1018A00001F004012DE0B3F1804F10D0194D1A481A
:1018B000AB421CD18B6943F008038B6189690392A9
:1018C00001F0080104910121CDE900120AE08B69C1
:1018D00043F004038B618969009201F004010192D5
:1018E000CDE903216946FFF705F905B030BD0B4D81
:1018F000AB42FAD18B6943F008038B61896901F02F
:101900000801CDE90042EBE7002C01400010024045
:101910000008014000040040000C014000080040A5
:1019200070B5044690F83C00002501280FD0012036
:1019300084F83C006AB1042A0FD0082A11D00C2A7E
:1019400013D00125002084F83C00284670BD0220F9
:1019500070BD206801F074FAF4E7206801F098FA8D
:10196000F0E7206801F0C0FAECE7206801F0E8FA3F
:10197000E8E7000010B5154A0168914224D1007FC4
:10198000012821D112480168486B44F6206200F515
:101990007A70904200D3801A48630E48017801297A
:1019A0000DD14188491C89B241808288914206D379
:1019B000002101700A4608210748FFF798F9BDE8A1
:1019C00010400648FEF7AEBF10BD00000008004002
:1019D000EC05002020000020000C0140E404002061
:1019E00030B500250446022249B1042912D0082945
:1019F0003ED094F84100012845D0012030BD94F834
:101A00003E000128F9D184F83E202068C26842F0E7
:101A1000020209E094F83F000128EED184F83F204B
:101A20002068C26842F00402C2600122206801F00E
:101A3000E7F91A492068884203D1426C42F4004217
:101A400042642068884208D0B0F1804F05D0144924
:101A5000884202D01349884204D1816801F007010D
:101A6000062903D0016841F001010160284630BD1C
:101A700094F840000128C0D184F840202068C26852
:101A800042F00802D0E784F841200C2901D001255A
:101A9000ECE72068C26842F01002C5E7002C014064
:101AA000000400400008004070B5044690F83C0077
:101AB00000260D4601280FD0012084F83C006AB1B1
:101AC000042A1DD0082A2FD00C2A3FD0012600203E
:101AD00084F83C00304670BD022070BD206801F0E3
:101AE000AFF92068816941F008018161206881694E
:101AF00021F004018161206881692A69114311E0A4
:101B0000206801F0C5F92068816941F400618161B4
:101B10002068816921F480618161206881692A6976
:101B200041EA02218161D2E7206801F0DDF92068F5
:101B3000C16941F00801C1612068C16921F0040157
:101B4000C1612068C1692A69114311E0206801F070
:101B5000F7F92068C16941F40061C1612068C16979
:101B600021F48061C1612068C1692A6941EA0221CA
:101B7000C161ACE710B5040003D094F83D0010B18A
:101B800007E0012010BD002084F83C00204600F052
:101B90001FF8022084F83D00211D206801F0F4F8B0
:101BA000012084F8460084F83E0084F83F0084F861
:101BB000400084F8410084F8420084F8430084F82F
:101BC000440084F8450084F83D00002010BD00006A
:101BD00008B500680B49884212D10B48816941F46D
:101BE000006181618069002200F40060009011466C
:101BF0001B20FFF7EDF8BDE808401B20FFF7DAB81F
:101C000008BD0000002C01400010024070B50446E1
:101C100000683049304D88421AD12878C0B92F4920
:101C2000088890B1401E08802D482E4A00781188FF
:101C3000012801D030B10BE040F62E10814207D8C8
:101C4000491C00E0491E118002E00120FEF71EFB46
:101C50002549206888421BD12878C8B923490888BB
:101C600098B1401E0880224822490078012801D0FE
:101C700038B10DE0088840F24652904208D8401C26
:101C800001E00888401E088002E00220FEF7FEFA0C
:101C90002068B0F1804F10D117490888A0B1401ECC
:101CA0000880164801781648012907D0002904D178
:101CB00001880A2901D9491E018070BD0188B1F54A
:101CC000C87FFAD8491CF7E7BDE870400320FEF74B
:101CD000DDBA0000002C014010000020140000209C
:101CE0000B0000201A000020000400401200002019
:101CF0000A00002018000020160000200C00002020
:101D00001C00002010B50446022249B104290ED05F
:101D1000082913D094F84100012816D0012010BDE5
:101D200094F83E000128F9D184F83E200FE094F8A1
:101D30003F000128F2D184F83F2008E094F84000E9
:101D40000128EBD184F8402001E084F841200122F1
:101D5000206801F055F80F492068884203D1426C91
:101D600042F4004242642068884208D0B0F1804FBB
:101D700005D00949884202D00849884204D18168C7
:101D800001F00701062903D0016841F0010101605B
:101D9000002010BD002C014000040040000800405D
:101DA00030B500250446022249B1042912D0082981
:101DB0003ED094F84100012845D0012030BD94F870
:101DC0003E000128F9D184F83E202068C26842F024
:101DD000020209E094F83F000128EED184F83F2088
:101DE0002068C26842F00402C2600122206801F04B
:101DF00007F81A492068884203D1426C42F4004235
:101E000042642068884208D0B0F1804F05D0144960
:101E1000884202D01349884204D1816801F0070149
:101E2000062903D0016841F001010160284630BD58
:101E300094F840000128C0D184F840202068C2688E
:101E400042F00802D0E784F841200C2901D0012596
:101E5000ECE72068C26842F01002C5E7002C0140A0
:101E6000000400400008004070477047704770470A
:101E7000F8B5016804460868CA684B6910F00F0F8E
:101E80004FF0000559D003F0010602F49077374374
:101E900065D0C10705D0D10503D5616C41F00101C2
:101EA0006164410705D5D90703D0616C41F0020197
:101EB0006164810705D5D90703D0616C41F0040145
:101EC0006164010707D502F02001314303D0616C42
:101ED00041F008016164616C00293AD0800604D5A4
:101EE000900602D5204601F0FCF820684069616C3C
:101EF000C0F38010090700D460B3204601F0CAF88F
:101F000020684069400621D52068143050E8001F41
:101F100021F0400140E80012002AF5D1E06BA8B1A1
:101F20006D494163E06BFEF787FD002811D0E06B3F
:101F3000416B01B0BDE8F040084783060FD593061A
:101F40000DD52046BDE8F84001F0CBB82046FFF79C
:101F50008EFFF8BD2046FFF78AFF6564F8BD266B4B
:101F60002023012E7CD1C6067AD5D60678D50868FE
:101F70004868009048694FF00206400640D5E16B82
:101F8000086840680004000CE8D0A28D8242E5D9C0
:101F9000E085886920282DD020680C3050E8001F8B
:101FA00021F4807140E80012002AF5D12068143035
:101FB00050E8001F21F0010140E80012002AF5D18D
:101FC0002068143050E8001F21F0400140E8001262
:101FD000002AF5D184F84230256320680C3050E89F
:101FE000001F21F0100140E80012002AF5D1E06B3B
:101FF000FEF7FEFC6663A08DE18D401A81B22AE0F7
:10200000A08DE18D401A81B2E08D0028A6D0002974
:10201000A4D022680C3252E8000F20F4907042E8FD
:102020000007002FF5D12068143050E8002F22F06F
:10203000010240E80027002FF5D184F842302563E3
:1020400020680C3050E8002F22F0100240E80023F6
:10205000002BF5D166632046FFF708FFF8BDFFE7C8
:1020600005062BD5150629D594F841002128F5D170
:10207000A068B0F5805F01D12069B0B1206A411C31
:102080002162216800784860E08C401E0004000C4A
:10209000E084E3D12068C16821F08001C16020683C
:1020A000C16841F04001C160D8E7206A0088C0F3F0
:1020B00008004860206A801C2062E5E74006CDD514
:1020C0005006CBD5CA68204622F04002CA6084F888
:1020D000413000F0DFF8C1E78530000870B504003A
:1020E00004D094F84100002510B106E0012070BD35
:1020F00084F84050204600F023F8242084F8410062
:102100002068C16821F40051C160204601F04AF8FE
:102110002068016921F4904101612068416921F042
:102120002A0141612068C16841F40051C1606564C1
:10213000202084F8410084F842006563002070BDCF
:1021400030B585B000240094019402940394006893
:10215000184988422CD11848816941F48041816135
:10216000816901F480410491816941F00401816138
:102170008069124D00F0040004904FF4007000904C
:10218000022001900320039069462846FEF7B2FC26
:102190002815CDE90004694628460294FEF7AAFCFA
:1021A000002202212520FEF713FE2520FEF702FE65
:1021B00005B030BD00380140001002400008014069
:1021C00090F84230202B01D00220704721B11AB183
:1021D0000023036301F042B80120704700680349FF
:1021E000884202D10249012008707047003801403E
:1021F000530000202DE9F843044690F8410098462A
:1022000016460D46202802D00220BDE8F88385B18D
:102210007EB100206064212084F84100FEF76CFD4F
:10222000A6848146E684A0682027B0F5805F02D0AE
:1022300003E00120E9E7206910B12E4600250EE0F9
:1022400000260CE08021204601F023F8A8B9C6B191
:1022500016F8010B21684860E08C401EE084E08C99
:102260004B464FF00002CDF800800028EAD14FF035
:102270004001204601F00DF840B184F84170032080
:10228000C3E735F8020BC0F30800E3E784F84170B8
:102290000020BAE77047FEE710B50E4C01228021FE
:1022A0002046FEF724FD012240212046FEF71FFDB7
:1022B00000F046F8002280212046FEF718FD00F0CD
:1022C0003FF8002240212046FEF711FDBDE81040F6
:1022D00000F036B8000C014010B50A4C00228021F5
:1022E0002046FEF704FD012240212046FEF7FFFCB8
:1022F00000F026F820460122BDE810408021FEF7BC
:10230000F6BC0000000C014010B50C4C01228021ED
:102310002046FEF7ECFC00F013F801224021204695
:10232000FEF7E5FC00F00CF8002240212046FEF705
:10233000DEFCBDE8104000F003B80000000C0140D6
:102340000320401EC0B2FCD27047000070B51F4889
:10235000034604784178821D9B788C4226D1002167
:10236000FCB105896D1CADB20581C370012623B196
:10237000012B04D0022B25D10AE0867022E00A2D21
:1023800003D302218170067109E08170517019E058
:102390004FF47A718D4215D30181052181705470FB
:1023A00010E001818170C17041700BE051B14CB9F6
:1023B0005170022B02D0052B02D003E0032100E074
:1023C000062181708078107070BD00000000002030
:1023D0003EB5002410480094019402940D49846095
:1023E000016004730475012505614FF460214460A8
:1023F000C161FEF7D3F908B1FDF7CAFFCDE9004589
:10240000694605480295FEF7A1F8002801D0FDF7BE
:10241000BFFF3EBD00240140E40400202DE9F04749
:1024200086B000263D480096019602960396816983
:1024300041F010018161816901F01001049181690D
:1024400041F020018161816901F0200104918169DD
:1024500041F004018161816901F004010491816905
:1024600041F0080181618069012200F00800DFF875
:10247000B0805403049021464046FEF738FCDFF854
:10248000A490002241F2EA014846FEF730FC012206
:1024900042F210214846FEF72AFCDFF88CA04FF4E8
:1024A000C057002239465046FEF721FC0094022511
:1024B00001240395CDE9014669464046FEF71AFB23
:1024C0004020CDE90006694602945046FEF712FB13
:1024D00041F202008DE83100694648460395FEF757
:1024E00009FB42F2F820CDE9000469464846CDE9EF
:1024F0000245FEF7FFFAF800CDE9000669460294AE
:102500004846FEF7F7FACDE9007469465046CDE932
:102510000245FEF7EFFA06B0BDE8F0870010024072
:1025200000100140000C01400008014030B591B09E
:1025300000240F941C2108A81094FDF7FAFD202117
:102540006846FDF7F6FD234D214828604720C5E980
:10255000010440F20770C5E903046C612846AC61D0
:10256000FFF708FB08B1FDF713FF0F940FA91948F7
:102570001094FEF7D3FF08B1FDF70AFF6020089022
:1025800040F28330CDE909040B940C940D940022A1
:1025900008A910480E94FFF787FA08B1FDF7F8FE76
:1025A00000944FF40050CDE9044002940194039448
:1025B000694608480794FEF787FF08B1FDF7E8FE73
:1025C00005480088E8600348FFF756F911B030BDB0
:1025D000002C0140140500202600002010B58EB00C
:1025E00000240794089409940A940B941C216846CB
:1025F0000C94FDF79EFD1F484FF08041016047217C
:10260000C0E9011440F28261C0E903148461FEF75D
:10261000B9FF08B1FDF7BCFE4FF48050079007A941
:102620001448FFF721F808B1FDF7B2FE1148FFF793
:10263000A1FA08B1FDF7ACFE0B940BA90D480C9460
:10264000FEF76CFF08B1FDF7A3FE6020009040F29A
:102650004130CDE901040422694606480494FFF79D
:1026600023FA08B1FDF794FE0248FFF705F90EB012
:1026700010BD00005C05002030B58DB00025079529
:10268000089509950A950B951C2168460C95FDF750
:1026900050FD214C1F4820604720C4E9010540F649
:1026A000C310C4E903052046A561FEF76BFF08B11E
:1026B000FDF76EFE4FF48050079007A91648FEF70D
:1026C000D3FF08B1FDF764FE1348FFF753FA08B1D2
:1026D000FDF75EFE0B950BA90F480C95FEF71EFF4C
:1026E00008B1FDF755FE6020009040F2E140CDE9D1
:1026F00001050822694608480495FFF7D5F908B195
:10270000FDF746FE05484088E0600348FFF7B4F84F
:102710000DB030BD00040040A405002026000020BC
:1027200010B58EB000240794089409940A940B9471
:102730001C2168460C94FDF7FCFC244822490160EA
:102740004721C0E9011444F61F61C0E90314846104
:10275000FEF718FF08B1FDF71BFE4FF480500790FD
:1027600007A91A48FEF780FF08B1FDF711FE1748C8
:10277000FFF700FA08B1FDF70BFE0B940BA9134805
:102780000C94FEF7CBFE08B1FDF702FE6020CDE908
:102790000004082269460D48FFF786F908B1FDF7E5
:1027A000F7FD4FF47A70CDE90040029400226946AB
:1027B00006480494FFF7B4F808B1FDF7E9FD0348B3
:1027C000FFF75AF80EB010BD00080040EC050020DD
:1027D0000E4810B50C4901604FF4E1314160002111
:1027E00081600C22C160C0E904128161C161FFF700
:1027F00075FC08B1FDF7CCFDBDE81040112204497D
:102800000248FFF7DDBC000000380140340600201C
:1028100036000020FEE7FEE730B40021084B0A46F0
:102820005FF0000003EBC004401CC0B2625480287B
:10283000F8D3491CC9B20829F2D330BC00F092B8D1
:102840006400002030B1012807D100215FF0A7000B
:1028500000F0BCB80021A620FAE7704710B558B1C7
:10286000012810D10021C02000F0B0F80021A020E4
:10287000BDE8104000F0AAB80021C82000F0A6F87A
:102880000021A120F4E710BD10B50021AE2000F01A
:102890009DF80021084600F099F80021102000F072
:1028A00095F80021402000F091F80021812000F0EF
:1028B0008DF80021CF2000F089F80021A12000F040
:1028C00085F80021C82000F081F80021A62000F042
:1028D0007DF80021A82000F079F800213F2000F0C9
:1028E00075F80021D32000F071F80021084600F0AF
:1028F0006DF80021D52000F069F80021802000F05B
:1029000065F80021D92000F061F80021F12000F0E5
:102910005DF80021DA2000F059F80021122000F0C3
:1029200055F80021DB2000F051F80021302000F0A4
:102930004DF80021202000F049F80021022000F08D
:1029400045F800218D2000F041F80021142000F00E
:102950003DF8FFF761FF0021BDE81040AF2000F017
:1029600035B8000070B5184E002400BF04F1B00067
:10297000C0B2002100F02AF80021084600F026F835
:102980000021102000F022F8FFF786FC782000F0EC
:102990007FF9FFF7B9FC402000F07AF9FFF7B4FCAB
:1029A0005FF0000506EBC500005D00F071F9FFF770
:1029B000ABFC6D1CEDB2802DF4D3FFF78DFC641CD5
:1029C000E4B2082CD2D370BD6400002070B50C4670
:1029D0000546FFF761FC782000F05AF9FFF794FCF8
:1029E0000CB1402000E0002000F052F9FFF78CFC11
:1029F000284600F04DF9FFF787FCBDE87040FFF76F
:102A00006BBC704770B5254C0D461646218A88422E
:102A100003D3401A82B2012102E0081A82B20021D7
:102A20000120FDF74FFCE089854203D3281A82B2CA
:102A3000012102E0401B82B200210220FDF742FC8E
:102A400002E00120FEF744F8208961890843F8D1AB
:102A5000C820FEF73DF8304600F0ECF8C820FEF73D
:102A600037F84FF4C87201210320FDF72BFC02E078
:102A70000120FEF72DF8A0890028F9D11420FEF7D7
:102A800027F80020FDF7F2FB1420FEF721F80020C4
:102A90006071BDE8704000F003B800000A0000203B
:102AA0002DE9F05FDFF868810125002088F80650E5
:102AB000FDF7DCFBC820FEF70BF84FF4C8720021CD
:102AC0000320FDF7FFFB0AE0B8F80C0020B988F8F6
:102AD00005500320FDF7DAFB0120FDF7F9FF98F818
:102AE00005000028F0D0872000F0A4F8494E4FF4EC
:102AF000004739463046FEF7EDF808B988F804502B
:102B000040214548FEF7E6F808B988F8055040F23C
:102B1000465A524600210220FDF7D4FB40F62E1BF8
:102B20005A4600210120FDF7CDFB4FF4804914E007
:102B300039463046FEF7CEF818B925710120FDF769
:102B4000A5FB49463046FEF7C5F818B9E5700220E6
:102B5000FDF79CFB0120FDF7BBFF98F803004446FE
:102B60000028E5D020790028E2D0C820FDF7B0FF8A
:102B700039463046FEF7AEF80025012801D188F825
:102B8000045040212448FEF7A5F8012801D188F817
:102B90000550524601210220FDF794FB01215A46BF
:102BA0000846FDF78FFBB8464F4615E041463046D4
:102BB000FEF790F8012802D12571FDF767FB394631
:102BC0003046FEF787F8012803D1E5700220FDF7B3
:102BD0005DFB0120FDF77CFFE0780128E6D020793D
:102BE0000128E3D0C820FDF773FFC820FDF72EFBB6
:102BF000C820FDF76DFFA5712581E58165812582DE
:102C0000A5816582E57025716571BDE8F09F0000C2
:102C10000A000020000C01400008014010B5082106
:102C20000348FFF76FF8BDE81040872000F002B8B6
:102C3000EC05002010B54FF48771884200D9084692
:102C400006490988814207D000F00AF8BDE8104023
:102C50004FF4C870FDF73CBF10BD00001E000020FF
:102C60004FF48771884200D908464FF4FA62424314
:102C7000B2FBF1F1034A01F5FA711268D16302491E
:102C800008807047EC0500201E00002070470000FF
:102C900070B5104E05460024280601D5012200E03B
:102CA000002280213046FEF722F8FFF749FB01227F
:102CB00040213046FEF71BF8FFF742FB002240217F
:102CC0003046FEF714F86806641C050EE4B2082CC2
:102CD000E2D370BD000C0140FEF714B830B593B0DC
:102CE00028216846FDF725FA14210AA8FDF721FAE4
:102CF000002501200F9510951195010412958DE87E
:102D0000230004904FF4E010CDE90810022407944A
:102D10006846FEF733FA08B172B6FEE70AA90F203B
:102D200081E831004FF48060CDE90D0502210AA849
:102D3000FEF748F908B172B6FEE74FF40040119073
:102D40000F940FA8FEF7C8F8002801D072B6FEE76E
:102D500013B030BD704700000148FEF7F4BC00001E
:102D6000140500200148FEF7EEBC00005C050020C1
:102D70000148FEF7E8BC0000A40500200148FEF76A
:102D8000E2BC0000EC050020F0B50268194B1A4CBB
:102D90001A4D4FF08047984205D0B84203D0A04268
:102DA00001D0A84203D122F070064A68324398420B
:102DB00005D0B84203D0A04201D0A84203D122F4EA
:102DC0004074CA6822434C6922F0800222430260A8
:102DD0008A68C2620A688262984201D10969016305
:102DE000012141610169C90703D0016921F0010195
:102DF0000161F0BD002C01400004004000080040CB
:102E000010B501F01F030121046A99408C4304624C
:102E1000016A9A401143016210BD10B5846842EA0C
:102E2000032224F47F440A432243826010BD826857
:102E300022F070020A4342F00701816070470000EF
:102E400030B5036A026A22F00102026242688469B4
:102E500024F073050C682C4323F002058B682B4388
:102E60000A4DA8420BD123F00805CB6822F440722A
:102E70002B434D6923F0040315438A692A434260BA
:102E8000846149684163036230BD0000002C014049
:102E900030B5026A036A23F0100303624368846951
:102EA0000D6824F4E64444EA05248D6822F02002EB
:102EB00042EA05120B4DA8420ED1CD6822F08002E5
:102EC00042EA05124D6923F4406343EA85038D69A4
:102ED00022F0400243EA85034360846149688163CC
:102EE000026230BD002C014030B5036A026A22F450
:102EF000807202624268C46923F4007324F073058F
:102F00000C682C438D6843EA05230C4DA8420ED172
:102F1000CD6823F4006343EA05234D6922F440524F
:102F200042EA05128D6923F4806342EA0512426089
:102F3000C4614968C163036230BD0000002C0140D8
:102F400030B5046A026A22F4805202624268C369A0
:102F50000D6823F4E64343EA05238D6824F4005406
:102F600044EA0534064DA84204D14D6922F480425A
:102F700042EA85124260C36149680164046230BD5F
:102F8000002C014010B5036A046A24F001040462B5
:102F9000846924F0F00444EA021423F00A020A438C
:102FA0008461026210BD10B5036A046A24F0100443
:102FB0000462846923F0A00324F4704444EA0232DA
:102FC00043EA01118261016210BD00002DE9F04168
:102FD0002B4C0D46DDF81880218A1E461746884284
:102FE00003D3401A82B2012102E0081A82B2002102
:102FF0000120FDF767F9E089854203D3281A82B2E0
:10300000012102E0401B82B200210220FDF75AF9A3
:1030100002E00120FDF75CFD208961890843F8D1B9
:10302000C820FDF755FD4FF4C8752A46012103203D
:10303000FDF748F902E00120FDF74AFDA0890028CC
:10304000F9D11420FDF744FD0120FDF70FF91420FC
:10305000FDF73EFD2A4600210320FDF733F902E08B
:103060000120FDF735FDA0890028F9D1C820FDF722
:103070002FFD424631463846BDE8F041FFF7C2BC5D
:103080000A00002010B5406A0021C185C184FEF706
:10309000EEFE10BD01680C3151E8002F22F4907251
:1030A00041E80023002BF5D10168143151E8002FCD
:1030B00022F0010241E80023002BF5D1016B012928
:1030C00009D101680C3151E8002F22F0100241E8CB
:1030D0000023002BF5D1202180F84210002101634C
:1030E000704708B590F84210222901D0022008BD8F
:1030F00082684FF480539A4201D1016921B1816AFB
:103100009A421BD04AB10AE00268816A5268C2F34F
:1031100008020A80816A891C08E0026972B10268AB
:10312000526802F07F020A70816A491C8162C18D77
:10313000491E0904090CC18503D01BE002685268CE
:10314000F1E70168CA6822F02002CA600168CA6813
:1031500022F48072CA6001684A6922F001024A6161
:10316000202180F8421000214163026B012A03D024
:10317000FFF734F8002008BD016301680C3151E805
:10318000002F22F0100241E80023002BF5D1016846
:103190000A68D20602D50A6849680091818DFEF757
:1031A00065FEE7E770B5044600680169E26821F44E
:1031B0004051114301612169A068084361690843D6
:1031C0002168CA6841F20C639A430243CA602068CE
:1031D0004169A26921F44071114341611E4920688F
:1031E000884202D1FDF794FF01E0FDF781FF00EB7B
:1031F000C00101EB0012606864218000B2FBF0F3B3
:10320000B3FBF1F36FF018067343B2FBF0F5B2FBBA
:10321000F0F605EB8305322303EB0515B5FBF1F55D
:10322000B6FBF1F605F0F00505EB0615B2FBF0F67E
:10323000B2FBF0F0B0FBF1F06FF01802504306EB78
:10324000800003EB0010B0FBF1F0216800F00F00EC
:103250002844886070BD000000380140816282858A
:10326000C28500214164222180F84210016921B108
:103270000168CA6842F48072CA6001684A6942F013
:1032800001024A610068C16841F02001C16000206C
:1032900070472DE9F843984617460D460446089EA8
:1032A00024E0701C22D0FDF727FDA0EB0800B042FF
:1032B0001AD8CEB12068C168490717D5802D15D01E
:1032C000402D13D00168C94309070FD401680025B8
:1032D000406800902046FFF7DDFE0820606484F817
:1032E00040500120BDE8F8830320FBE72068006818
:1032F00035EA000004D00020B842D2D00020F1E727
:103300000120F9E70148FEF7B3BD000034060020B4
:10331000F8B500208DF800000A23112238493948F9
:10332000FEF768FF364C60788DF8000002209DF8AB
:103330000020215C401C5140C0B28DF800100E28C6
:10334000F5D90A23012269462E48FEF753FF20785B
:10335000AA284DD1207C55284AD1E07B9DF8001049
:10336000884245D134F8030F41BA25480C38018012
:10337000628856BA4680A28855BA8580E08843BAEA
:103380001F48801F0380228952BA4280648964BA30
:10339000848040F62E1081422AD840F24657BE4221
:1033A00026D8834224D8BA4222D8A5F5B4405A3848
:1033B00002D1B4F5877F1BD811480F0A113007706E
:1033C0004170310A8170C670290A01714571190A6C
:1033D0008171C371110A01724272210A8172C47231
:1033E00001460A230C220748FEF704FF0120F8BD1E
:1033F000B22000F009F8C820FCF728FF0020F8BD33
:1034000036000020340600201CB5AA218DF80010DB
:1034100003218DF801108DF8020080F003008DF873
:10342000030055208DF804000A230522694602484E
:10343000FEF7E0FE1CBD000034060020FEE7090791
:10344000090E002804DB00F1E02080F8001470472A
:1034500000F00F0000F1E02080F8141D704702E03A
:1034600008C8121F08C1002AFAD17047704700200F
:1034700001E001C1121F002AFBD1704708B5FDF71A
:1034800049FCFFF72BFCFEF7C9FFFFF7A1F9FEF798
:103490009FFFFFF745F9FFF7A1F8FFF7EDF8FFF7FA
:1034A00045F82E48FCF7E4FF00212D48FEF798FA76
:1034B000FFF7B4FB6420FCF7C9FE6420FDF708FBAE
:1034C000FFF7E2F90020FFF7BDF90020FFF7C6F98A
:1034D00000212448FEF764FC08212348FEF760FC25
:1034E00004212248FEF75CFCFFF7DAFA204D4FF486
:1034F0000054002221462846FDF7F9FB4FF4C8701E
:10350000FDF7E6FA21462846FDF7E9FB194C1A4D6E
:103510001A4E307801281ED1FFF7FAFE012813D188
:10352000A0885A27A0F5B4415A3900D1AF88B020FD
:10353000FFF76AFF00976B882A8861882088FFF769
:1035400045FDB120FFF760FF0020307011220C49CB
:103550000C48FEF735FEFCF71DFFDAE7E404002017
:10356000EC05002014050020A40500205C050020C7
:10357000001001402A0000203000002053000020ED
:10358000360000203406002001020203040506076D
:1035900008090A0B0C0D0E0F10100102020304059E
:1035A000060708090A0B0C0D0E0F10100000000092
:1035B00000000000010203040607080900000000E3
:1035C00001020304E435000800000020640000004C
:1035D0005E34000848360008640000201C0A000021
:1035E0006E3400080000000000000000000001012F
:1035F00001000000000000000000000000000000CA
:103600000000FFFF0000000000000807C4090000E0
:10361000000000000000000000000001020304059B
:10362000060708090A0B0C0D0E0F10000102030417
:10363000050708090A0B0000010000001000000047
:08364000000000000024F4006A
:04000005080000ED02
:00000001FF
